:020000040800F2
:10000000A008002089010008471300082D120008ED
:10001000451300089B0300083D160008000000007F
:100020000000000000000000000000004B1300086A
:100030009D03000800000000491300084D1300084C
:10004000A3010008A3010008A3010008A301000800
:10005000A3010008A3010008A3010008A3010008F0
:10006000A3010008A3010008A3010008A3010008E0
:10007000A3010008A3010008A3010008A3010008D0
:10008000A3010008A3010008A3010008A3010008C0
:10009000A3010008A3010008A3010008A3010008B0
:1000A000A3010008A3010008A3010008A3010008A0
:1000B000A3010008A3010008A3010008A301000890
:1000C000A3010008A3010008A3010008A301000880
:1000D000A3010008A3010008A301000831160008CD
:1000E000A3010008A3010008A301000800F002F822
:1000F00000F03AF80AA090E8000C82448344AAF188
:100100000107DA4501D100F02FF8AFF2090EBAE885
:100110000F0013F0010F18BFFB1A43F0010318473B
:100120003035000050350000103A24BF78C878C13F
:10013000FAD8520724BF30C830C144BF04680C60ED
:10014000704700000023002400250026103A28BF35
:1001500078C1FBD8520728BF30C148BF0B60704739
:100160001FB51FBD10B510BD00F0E2F81146FFF736
:10017000F7FF01F0A1FE00F000F903B4FFF7F2FF72
:1001800003BC00F003F90000094880470948004714
:10019000FEE7FEE7FEE7FEE7FEE7FEE7FEE7FEE737
:1001A000FEE7FEE704480549054A064B7047000094
:1001B000AF130008ED000008A0020020A0080020F6
:1001C000A0040020A0040020032A40F2308010F098
:1001D000030C00F0158011F8013BBCF1020F6244E2
:1001E00098BF11F801CB00F8013B38BF11F8013B73
:1001F000A2F1040298BF00F801CB38BF00F8013B20
:1002000011F0030300F05A80083AC0F0088051F85A
:10021000043B083A51F804CBA0E80810F5E7121D9A
:100220005CBF51F8043B40F8043BAFF30080D207B9
:1002300024BF11F8013B11F801CB48BF11F8012B85
:1002400024BF00F8013B00F801CB48BF00F8012BA8
:1002500070474FF0000200B5134694469646203989
:1002600022BFA0E80C50A0E80C50B1F12001BFF46F
:10027000F7AF090728BFA0E80C5048BF0CC05DF8D5
:1002800004EB890028BF40F8042B08BF704748BF23
:1002900020F8022B11F0804F18BF00F8012B704797
:1002A00070477047704710B500F03AF8006810BD0D
:1002B00010B5044600F034F8046010BD10B5203AC3
:1002C000C0F00B80B1E81850203AA0E81850B1E80F
:1002D0001850A0E81850BFF4F5AF5FEA027C24BFC5
:1002E000B1E81850A0E8185044BF18C918C0BDE8BC
:1002F00010405FEA827C24BF51F8043B40F8043B85
:1003000008BF7047D20728BF31F8023B48BF11F839
:10031000012B28BF20F8023B48BF00F8012B704793
:10032000004870474002002000487047400200200B
:100330007546FFF7F9FFAE4605006946534620F0C3
:100340000700854618B020B5FFF72CFFBDE8204018
:100350004FF000064FF000074FF000084FF0000B81
:1003600021F00701AC46ACE8C009ACE8C009ACE834
:10037000C009ACE8C0098D46704710B50446AFF31C
:1003800000802046BDE81040FFF7F7BE0149182065
:10039000ABBEFEE7260002007047FEE770472DE97E
:1003A000FF410027DDE90A4600978DF80000FD2097
:1003B0008DF801008DF802100197100A8DF80300E6
:1003C0008DF804208DF80530200E8DF80600200CE5
:1003D0000C9D8DF807000297200A8DF808000397FE
:1003E0008DF809406B208DF80A608DF80C008DF8AF
:1003F0000B500D21684602F003F8BDE8FF8172B68C
:10040000FEE710B590F821100022022905D0042142
:10041000816380F82020012010BD01680B6823F063
:100420000E030B6001680B6823F001030B6090F86A
:100430004030C46B012101FA03F3636080F821109E
:1004400080F82020104610BD10B590F8211000242F
:10045000022903D00421816301243DE001680A6878
:1004600022F00E020A6001680A6822F001020A60A6
:100470001A4A0168914201D1012121E0174A143240
:10048000914201D110211BE0144A2832914201D13E
:10049000891515E0114A3C32914201D189140FE0CF
:1004A0000E4A5032914202D14FF4803108E00B4A9B
:1004B0006432914202D14FF4801101E04FF080711B
:1004C000064A083A5160012180F82110002180F885
:1004D0002010416B01B18847204610BD0800024042
:1004E00070B5044600F004F90546601C02D00448CB
:1004F0000078044400F0FCF8401BA042FAD370BD21
:10050000700000202DE9F84FDFF8B8910024A9F120
:10051000040B23460F2709F1040AABF1040EC9E0CE
:100520000125A5402A40AA427DD1674ED1F804C0DA
:10053000ACEB0608B44532D014DCBCF1030F3AD062
:1005400009DCBCF1000F2AD0BCF1010F1CD0BCF1BA
:10055000020F31D11DE0BCF1110F17D0BCF1120F09
:100560002AD119E0B8F5881F19D006DCB8F5803F0C
:1005700015D0B8F5801F1FD111E0B8F5001F0ED0BF
:10058000B8F5041F18D10AE0CB6815E0CB681B1D35
:1005900012E0CB6808330FE0CB680C330CE08B68BB
:1005A0002BB1012B4FF0080303D0456104E0042375
:1005B00002E0056100E00023FF2A01D8064601E0C1
:1005C00000F104064FEA840501D9A5F12005D6F80B
:1005D000008007FA05FC28EA0C0803FA05F548EA4A
:1005E0000508C6F800804D68ED0062D5374DAE694C
:1005F00046F00106AE61AD6924F0030605F0010581
:100600000095334D06EB050CDCF80850A607360FB5
:1006100007FA06F825EA0805DFF8B880404503D157
:100620004FF0000817E044E0DFF8AC80404502D10D
:100630004FF001080FE0DFF8A480404502D14FF0F1
:10064000020808E0DFF89880404502D14FF0030827
:1006500001E04FF0040808FA06F848EA0508CCF86B
:1006600008804D68D9F80060ED024D4601D516436B
:1006700000E096432E604D68DAF80060AD02554602
:1006800001D5164300E096432E604D68DBF800600C
:10069000AD035D4601D5164300E096432E604D68DC
:1006A000DEF80060ED03754601D5164300E0964381
:1006B0002E60641C0D682A46E5407FF431AFBDE82A
:1006C000F88F0000080401400000111000100240E3
:1006D0000000014000080140000C014000100140F2
:1006E000001401408068084000D0012070470000DD
:1006F000014880687047000070000020024881684F
:10070000027811448160704770000020074810B5DE
:10071000016841F010010160032000F075F80F201E
:1007200000F006F800F024F8002010BD0020024080
:1007300070B50D4D04464FF47A712878B1FBF0F096
:100740000A490968B1FBF0F000F0DCFA48B9102C56
:1007500007D200222146501E00F036F800206C60BF
:1007600070BD012070BD0000700000207C000020E2
:100770000C4808B5816941F001018161816901F08E
:1007800001010091C16941F08051C161C06900F06F
:10079000805000900448416821F0E06141F0007110
:1007A000416008BD0010024000000140002809DB44
:1007B00000F01F02012191404009800000F1E0207B
:1007C000C0F8001170470000F0B40E4B1B680C46D7
:1007D000C3F30223C3F10705042D00D90425191D15
:1007E000072901D2002300E0DB1E012606FA05F1ED
:1007F000491E214099409E40761E16403143F0BC70
:1008000000F031BF0CED00E0064900F00702086877
:100810004FF6FF03184040EA0220034A10430860E5
:10082000704700000CED00E00000FA052DE9F047EC
:100830000F46050061D0434E306800F00700B84213
:1008400009D2306820F0070038433060306800F08B
:100850000700B84251D128683B4C810712D54007A8
:1008600003D5606840F4E06060602878000703D535
:10087000606840F4605060606068A96820F0F00033
:10088000084360602878C00728D06868012810D025
:100890002168022810D0890700292EDA616821F02A
:1008A000030101436160FFF723FF804641F288396D
:1008B0000DE021688903EFE78901EDE7FFF718FFF5
:1008C000A0EB0801494502D90320BDE8F087606824
:1008D000696800F00C00B0EB810FEFD1306800F0D8
:1008E0000700B8420BD9306820F007003843306069
:1008F000306800F00700B84201D00120E5E7287811
:10090000400705D56068E96820F4E060084360604E
:100910002878000706D56068296920F4605040EA0D
:10092000C100606000F038F86168084AC1F3031143
:10093000515CC8400649086006480068FFF7F8FEA9
:100940000020C2E700200240001002409435000859
:100950007C000020740000200448054900684968B4
:10096000044AC1F30221515CC84070477C0000205A
:1009700000100240A4350008044805490068496891
:10098000044AC1F3C221515CC84070477C0000207A
:1009900000100240A43500080E4A51680E4801F0CC
:1009A0000C03042B11D0082B0FD10C48C1F3834347
:1009B000C903C05C0AD55168084AC1F34041921E80
:1009C000515C054A5043B0FBF1F07047044948437D
:1009D000704700000010024000127A0084350008C1
:1009E00000093D002DE9F84F040070D02078C04D7B
:1009F000C00749D06868C0F38100012807D0686843
:100A0000C0F38100022809D16868C00306D52868B0
:100A1000800339D560680028E7D035E06068B0F51C
:100A2000803F0BD010B1B0F5A02F11D0286820F472
:100A300080302860286820F4802002E0286840F494
:100A400080302860606890B1FFF752FE06460AE0E9
:100A5000286840F480202860F0E700BFFFF748FED8
:100A6000801B642873D828688003F7D50CE0FFF753
:100A70003FFE064605E000BFFFF73AFE801B6428F4
:100A8000F0D828688003F7D420789A4E80074FF07A
:100A900001094FF0000839D5686810F00C0F07D035
:100AA0006868C0F38100022809D16868C00306D4D1
:100AB0002868800714D52069012808D110E0206932
:100AC000B0B1C6F80090FFF713FE074605E00AE153
:100AD000FFF70EFEC01B0228C4D828688007F7D590
:100AE0002868616920F0F80040EAC10028600DE044
:100AF000C6F80080FFF7FCFD074604E0FFF7F8FDAD
:100B0000C01B022823D828688007F7D42078000764
:100B10002CD57948A169D9B1C0F80090FFF7E8FD5C
:100B2000074604E0FFF7E4FDC01B02280FD8686AFF
:100B30008007F7D571484FF4FA510068B0FBF1F027
:100B4000009000BF0098411E0091FAD20EE080E0B4
:100B5000C0F80080FFF7CCFD074604E0FFF7C8FDB2
:100B6000C01B022875D8686A8007F7D42078400730
:100B700060D5E8690027C00008D4E86940F08050DB
:100B8000E861E869012700F0805000905C48016846
:100B9000C90513D40168834641F480710160FFF7F1
:100BA000A7FD824606E000BFFFF7A2FDA0EB0A000A
:100BB00064284ED8DBF80000C005F5D5E0680128B0
:100BC0000AD008B1052813D0286A20F00100286255
:100BD000286A20F0040002E0286A40F00100286240
:100BE000E06841F2883B98B1FFF782FD82460BE056
:100BF000286A40F004002862EEE700BFFFF778FDA6
:100C0000A0EB0A0159455AD8286A8007F6D50CE0AE
:100C1000FFF76EFD824605E0FFF76AFDA0EB0A01D3
:100C200059454CD8286A8007F6D41FB1E86920F0EE
:100C30008050E861E06988B36968C1F381010229E5
:100C400044D00228C6F8608004D0FFF751FD044666
:100C500038E034E0FFF74CFD074604E0FFF748FDBD
:100C6000C01B02282BD828688001F7D4206AB0F571
:100C7000803F05D16868A16820F4003008436860AF
:100C8000D4E908010843696821F4741108436860D5
:100C9000C6F86090FFF72CFD044606E025E000BF93
:100CA000FFF726FD001B022809D828688001F7D528
:100CB0001BE000BFFFF71CFD001B022802D9032028
:100CC000BDE8F88F28688001F4D40EE00128F7D041
:100CD0006868226A00F48031914204D1616A00F4AC
:100CE0007010884201D00120EAE70020E8E7000008
:100CF0000010024000004242800442427C0000207A
:100D00000070004010B5401EB0F1807F01D301207B
:100D100010BD4FF0E02460610F21601700F0A3FCCC
:100D20000020A06107202061002010BD18B50346F7
:100D300090F84200202801D0022018BD61B15AB1BC
:100D40000120186300205863184600F01DFC00289D
:100D5000F3D1196B012901D0012018BD19680A6867
:100D60004968009119680C3151E8002F42F01002D7
:100D700041E80024002CF5D118BD0000074A10B549
:100D800090420AD1C9B2064801F044FBBDE81040C8
:100D9000642203490148FFF7C9BF10BD7801002054
:100DA0008400002070470000F8B501680446086818
:100DB000CA684B6910F00F0F4FF0000559D003F0CF
:100DC000010602F49077374365D0C10705D0D105FD
:100DD00003D5616C41F001016164410705D5D90774
:100DE00003D0616C41F002016164810705D5D90728
:100DF00003D0616C41F004016164010707D502F082
:100E00002001314303D0616C41F008016164616CE1
:100E100000293AD0800604D5900602D5204600F07D
:100E2000F6FA20684069616CC0F38010090700D4AD
:100E300060B3204600F0C4FA20684069400621D51E
:100E40002068143050E8001F21F0400140E80012F3
:100E5000002AF5D1E06BA8B16D494163E06BFFF763
:100E6000F3FA002811D0E06B416B01B0BDE8F0400F
:100E7000084783060FD593060DD52046BDE8F840F8
:100E800000F0C5BA2046FFF78DFFF8BD2046FFF7FA
:100E900089FF6564F8BD266B2023012E7CD1C60630
:100EA0007AD5D60678D508684868009048694FF02A
:100EB0000206400640D5E16B086840680004000C5B
:100EC000E8D0A28D8242E5D9E085886920282DD01E
:100ED00020680C3050E8001F21F4807140E80012B7
:100EE000002AF5D12068143050E8001F21F00101DC
:100EF00040E80012002AF5D12068143050E8001FA5
:100F000021F0400140E80012002AF5D184F8423077
:100F1000256320680C3050E8001F21F0100140E8E4
:100F20000012002AF5D1E06BFFF76BFA6663A08D23
:100F3000E18D401A81B22AE0A08DE18D401A81B284
:100F4000E08D0028A6D00029A4D022680C3252E8F7
:100F5000000F20F4907042E80007002FF5D12068C0
:100F6000143050E8002F22F0010240E80027002F43
:100F7000F5D184F84230256320680C3050E8002F0A
:100F800022F0100240E80023002BF5D166632046D2
:100F9000FFF7F4FEF8BDFFE705062BD5150629D5AA
:100FA00094F841002128F5D1A068B0F5805F01D107
:100FB0002069B0B1206A411C216221680078486034
:100FC000E08C401E0004000CE084E3D12068C1687E
:100FD00021F08001C1602068C16841F04001C1601A
:100FE000D8E7206A0088C0F308004860206A801CA7
:100FF0002062E5E74006CDD55006CBD5CA6820462D
:1010000022F04002CA6084F8413000F00EF9C1E7D6
:10101000B113000870B5040004D094F84100002515
:1010200010B106E0012070BD84F84050204600F069
:1010300023F8242084F841002068C16821F400517D
:10104000C160204600F044FA2068016921F4904113
:1010500001612068416921F02A0141612068C1686D
:1010600041F40051C1606564202084F8410084F897
:1010700042006563002070BDF0B585B00024009487
:101080000194029403940368394F022039490322E2
:10109000394D4602BB421AD18B6943F480438B61C0
:1010A0008B6903F4804304938B6943F004038B61E1
:1010B0008969039201F0040104910102CDE9001055
:1010C00069462846FFF71EFACDE900641DE02B4F64
:1010D000BB4221D1CB6943F40033CB61CB6903F42C
:1010E000003304938B6943F004038B618969039295
:1010F00001F0040104910421CDE90010694628465D
:10110000FFF700FA0820CDE900046946284602945A
:10111000FFF7F8F905B0F0BD194DAB42FAD1CB6934
:1011200043F48023CB61CB6903F4802304938B6960
:1011300043F008038B618969124D01F00801CDE984
:101140000321CDE9006069462846FFF7DBF9E81482
:10115000CDE90004694628460294FFF7D3F900223E
:1011600011462720FFF730FB2720FFF71FFBD1E7B1
:1011700000380140001002400008014000440040D7
:1011800000480040000C014070472DE9F843044638
:1011900090F84100984616460D46202802D00220BD
:1011A000BDE8F88385B17EB100206064212084F819
:1011B0004100FFF79DFAA6848146E684A0682027B7
:1011C000B0F5805F02D003E00120E9E7206910B1AB
:1011D0002E4600250EE000260CE08021204600F07F
:1011E000EEF9A8B9C6B116F8010B21684860E08C89
:1011F000401EE084E08C4B464FF00002CDF80080AA
:101200000028EAD14FF04001204600F0D8F940B163
:1012100084F841700320C3E735F8020BC0F30800DF
:10122000E3E784F841700020BAE77047FEE700006A
:1012300030B585B00024164801940394816941F0CB
:1012400020018161816901F020010491816941F0EF
:1012500004018161816901F004010491816941F017
:10126000080181618069012500F008000490C02018
:101270000090694602950748FFF744F903208DE87E
:10128000310069460448FFF73DF905B030BD000064
:101290000010024000080140000C01400C4810B54D
:1012A0000A4901604FF4E1314160002181600C2264
:1012B000C160C0E904128161C161FFF7ABFE002883
:1012C00003D0BDE81040FFF79AB810BD00380140C8
:1012D000E80000200C4810B50A4901604FF4E131E4
:1012E0004160002181600C22C160C0E9041281616B
:1012F000C161FFF78FFE002803D0BDE81040FFF763
:101300007EB810BD00440040300100200C4810B5EC
:101310000A4901604FF4E1314160002181600C22F3
:10132000C160C0E904128161C161FFF773FE00284A
:1013300003D0BDE81040FFF762B810BD0048004080
:1013400078010020FEE7FEE770477047FFF7D6B947
:1013500030B58FB028216846FEF77BFF14210AA81C
:10136000FEF777FF01210804CDE900100024029464
:1013700002250491CDE907504FF4E010099068462A
:10138000FFF730FB08B172B6FEE70F20CDE90A0582
:101390004FF48060CDE90C4002210AA80E94FFF7BB
:1013A00045FA002801D072B6FEE70FB030BD704795
:1013B00010B5406A0021C185C184FFF7F3FC10BD60
:1013C00001680C3151E8002F22F4907241E80023AB
:1013D000002BF5D10168143151E8002F22F00102F1
:1013E00041E80023002BF5D1016B012909D10168E7
:1013F0000C3151E8002F22F0100241E80023002BAD
:10140000F5D1202180F8421000210163704708B512
:1014100090F84210222901D0022008BD82684FF4C2
:1014200080539A4201D1016921B1816A9A421BD04D
:101430004AB10AE00268816A5268C2F308020A806F
:10144000816A891C08E0026972B10268526802F080
:101450007F020A70816A491C8162C18D491E09049C
:10146000090CC18503D01BE002685268F1E70168EE
:10147000CA6822F02002CA600168CA6822F4807239
:10148000CA6001684A6922F001024A61202180F89D
:10149000421000214163026B012A03D0FFF774FE62
:1014A000002008BD016301680C3151E8002F22F0D3
:1014B000100241E80023002BF5D101680A68D2062A
:1014C00002D50A6849680091818DFFF757FCE7E76C
:1014D00070B5044600680169E26821F44051114387
:1014E00001612169A0680843616908432168CA68ED
:1014F00041F20C639A430243CA6020684169A269C1
:1015000021F44071114341611E492068884202D193
:10151000FFF732FA01E0FFF71FFA00EBC00101EB21
:101520000012606864218000B2FBF0F3B3FBF1F3BA
:101530006FF018067343B2FBF0F5B2FBF0F605EB63
:101540008305322303EB0515B5FBF1F5B6FBF1F688
:1015500005F0F00505EB0615B2FBF0F6B2FBF0F076
:10156000B0FBF1F06FF01802504306EB800003EB84
:101570000010B0FBF1F0216800F00F0028448860F3
:1015800070BD00000038014081628285C285002163
:101590004164222180F84210016921B10168CA68C2
:1015A00042F48072CA6001684A6942F001024A61ED
:1015B0000068C16841F02001C160002070472DE93A
:1015C000F843984617460D460446089E24E0701CD2
:1015D00022D0FFF78DF8A0EB0800B0421AD8CEB1A8
:1015E0002068C168490717D5802D15D0402D13D02C
:1015F0000168C94309070FD40168002540680090BD
:101600002046FFF7DDFE0820606484F8405001208A
:10161000BDE8F8830320FBE72068006835EA000096
:1016200004D00020B842D2D00020F1E70120F9E731
:101630000148FFF7B9BB000078010020FEE7490030
:1016400050EAC12018BF04204A0D18BF40F0010025
:1016500040F2FF72B2EB515F08BF40F00200012878
:1016600008BF052070470907090E002804DB00F1B8
:10167000E02080F80014704700F00F0000F1E02037
:1016800080F8141D70472DE9F0414F1E00EBC70193
:101690000446D1E9000115461E4637F006020DD07A
:1016A0002A46334601F034F97F1E04EBC703D3E921
:1016B000002300F011FF37F00602F1D1022F25D0F0
:1016C000042F13D0062F18BFBDE8F0812A463346F9
:1016D00001F01EF9D4E90A2300F0FEFE2A46334643
:1016E00001F016F9D4E9082300F0F6FE2A46334645
:1016F00001F00EF9D4E9062300F0EEFE2A46334647
:1017000001F006F9D4E9042300F0E6FE2A46334648
:1017100001F0FEF8D4E9022300F0DEFE2A4633464B
:1017200001F0F6F8D4E90023BDE8F04100F0D4BEA2
:10173000012201F0BABE002213461046114600F005
:101740007BBF0000024A0020110701F0AEBE00007E
:1017500001FDFFFF2DE9F04D0546DFF8388221F04D
:1017600000408D4F82B00C46404520DBA0EB0801C5
:1017700029430BD08949884201DC10D17DB102B0E8
:1017800028462146BDE8F04DFFF7D2BF002CC7BF69
:10179000002001468248394602B0BDE8F08D0120A4
:1017A000FEF786FD02B0BDE8F04DFFF7C4BF7D49EE
:1017B000884244DA7C498142A1BF79487B4902B022
:1017C000BDE8F08D2A4623461046194601F0A0F8E0
:1017D0008346024676480E460B4606217844FFF7BC
:1017E00052FF5A46334601F093F8074671488A463D
:1017F0005A46334604217844FFF745FF5A4633469C
:1018000001F086F80022434600F066FE02460B46D1
:101810003846514600F010FF2A46234601F078F87A
:10182000654A664B01F072F92A46234601F06EF9CB
:1018300002B05B4ABDE8F04D5C4B01F067B9002C8B
:101840004FF000024BDA464643462846214600F058
:1018500043FE4FF0FF3201F028FE0446024658488E
:101860000D460B4606217844FFF70DFF22462B4616
:1018700001F04EF8804653488A4622462B46042102
:101880007844FFF700FF22462B4601F041F8002282
:10189000334600F021FE06468B462046294600F0DE
:1018A00089FD04460D4632465B464046514600F0EF
:1018B000C3FE22462B4601F02BF83F4A3F4B01F076
:1018C00017FA22462B4600F007FE012201F0EDFD3B
:1018D00002B03B46BDE8F04D314A01F017B92D4B3F
:1018E0002846214601F012F94FF0FF3201F0DDFDEC
:1018F00005460E4600F05EFD00270C4680463A463F
:101900000B4600F0E9FD82468B463A4623461046D8
:10191000194600F0FDFF2A46334601F0F7F852461B
:101920005B4600F089FE824627488B462A463346AE
:1019300006217844FFF7A7FE2A46334600F0E8FF69
:10194000CDE9000121482A46334604217844FFF7B7
:101950009AFE2A46334600F0DBFF00220D4B00F0D2
:10196000BBFD02460B46DDE9000100F065FE424684
:10197000234600F0CDFF52465B4600F0ADFD3A46EF
:10198000234600F0A9FD02B00122BDE8F04D01F0B0
:101990008CBD00000000F03FFB2109400000F07FFB
:1019A000182D44540000E03F0000603CFB21F93F4B
:1019B000D01D0000E61D0000075C143326A6913CF4
:1019C000461D00005C1D00007A1C0000901C0000F9
:1019D00003490A78104400F07F0008707047000047
:1019E000800000202DE9F04D8D4F21F0004A86B097
:1019F00005460C46BA452ADBAAEB070028430AD065
:101A00008848824501DC1AD1CDB106B02846BDE830
:101A1000F04DFFF78DBE844A844B284600F078FFD6
:101A200007460E46824A834B2846214600F070FF47
:101A300006B03A463346BDE8F04D00F04DBD0120FA
:101A4000FEF736FC06B0BDE8F04DFFF774BE7A48ED
:101A5000824542DABAF1795F0BDA2846FFF7EFFDEB
:101A6000042808BFFFF76EFE284606B02146BDE8F1
:101A7000F08D2A460B46104600F04AFF8346024688
:101A80006E480E460B4606217844FFF7FCFD5A4689
:101A9000334600F03DFF804669488A465A46334641
:101AA00004217844FFF7EFFD5A46334600F030FF3B
:101AB00000223B4600F010FD02460B4640465146D0
:101AC00000F0BAFD2A46234600F022FF06B02A465F
:101AD0002346BDE8F04D00F0FFBC284624F000414D
:101AE00000223D463B4601F011F84FF0FF3201F075
:101AF000DCFC0646024653480F460B460621784456
:101B0000FFF7C1FD32463B4600F002FFCDE9000180
:101B10004D4832463B4604217844FFF7B4FD324637
:101B20003B4600F0F5FE00222B4600F0D5FC834634
:101B300002913046394600F03DFC804643480D4650
:101B4000504517DCDDE900015A46029B00F074FDA8
:101B500042462B4600F0DCFE42462B4600F0BCFC21
:101B6000012201F0A2FC304A304B01F0C1F8304AAA
:101B7000304B4CE04FF0000A52460B46404600F016
:101B8000ABFCCDE9031052462B461046194600F037
:101B9000BFFE32463B4600F0B9FFDDE9033200F0FC
:101BA0004BFD06460F46DDE900015A46029B00F058
:101BB00043FD8346009101223046394601F075FC11
:101BC000194A1A4B00F0A2FF06460F460122404672
:101BD000294601F06AFC5A46009B00F099FE324605
:101BE0003B4601F085F806460F460122504629463D
:101BF00001F05BFC0E4DDFF858802A46434600F0AA
:101C000085FF32463B4600F081FF2A46434600F0FE
:101C10007DFF002CD8BF81F0004106B0BDE8F08DFB
:101C20000000F03F0000F07F075C143326A6913CD3
:101C3000182D4454FB21F93F0000E03F741B0000C5
:101C40008A1B0000FE1A0000141B00003333EF3F14
:101C5000FB21E93F024900F07F00085C704700006B
:101C6000C0010020F0B5274B064658781978401A75
:101C70008030C21700EB526222F07F02801AC0B29D
:101C8000082816D30846FFF7E5FFAA2803D001204D
:101C9000FFF79EFEE9E7587819780824401A80304B
:101CA000C11700EB516121F07F01401AC0B2082832
:101CB00001D20020F0BD00252A46671E1878104486
:101CC000C0B2FFF7C7FF521C2844D2B2C5B2BA4215
:101CD000F4DB18782044401EC0B2FFF7BBFFA842D7
:101CE000D5D1002218781044C0B2FFF7B3FFB0542A
:101CF000521CD2B2A242F5D32046FFF769FE20461D
:101D0000F0BD000080000020074841780078081AE4
:101D10008030C11700EB516121F07F01401AC0F102
:101D20008000C0B270470000800000202DE9FE4313
:101D30005E4F01213846FEF7D5FC5D4D0221A870AB
:101D40003846FEF7CFFCDFF86C81E870402144464E
:101D50004046FEF7C7FC287180212046FEF7C2FCF2
:101D60006871A878002478B91E20FEF7B9FB68785E
:101D7000401CC0B26870022800D96C70012138463E
:101D8000FEF7B0FC0028F9D0E87844F250664FF432
:101D9000FA7950BB1E20FEF7A3FB687840B9CDE965
:101DA000006419234A46002101200294FEF7F7FA45
:101DB0006878012808D1CDE9006419234A4600213A
:101DC00002200294FEF7EBFA6878022807D100940B
:101DD00033464A4600210120019400F0BBFA02215B
:101DE0003846FEF77FFC0028F9D0287958BB1E2022
:101DF000FEF776FB687840B9CDE90064012119232C
:101E00004A4608460294FEF7CAFA6878012808D1C3
:101E1000CDE9006419234A46012102200294FEF70D
:101E2000BEFA6878022807D10121009433464A4659
:101E30000846019400F08EFA464640213046FEF7EF
:101E400051FC0028F9D0687900282CD11E20FEF71B
:101E500047FB0125CDE9004519234E464A4600219E
:101E600028460294FEF79BFA0520FEF739FBCDE9E0
:101E7000004519233246002102200294FEF78FFA12
:101E80000520FEF72DFBCDE90054012100234FF47E
:101E9000FA62084600F05EFA444680212046FEF7CA
:101EA00021FC0028F9D0BDE8FE830000000C0140B1
:101EB000000000200008014090B0FEF727FCFFF76B
:101EC00047FAFFF7B5F9FFF7E9F9FFF703FAFFF76C
:101ED0001DFA534C514EA0683146054601F086F874
:101EE000E06029464FF07E5001F080F8314601F065
:101EF0005FF920614B4860614B48A0614B48E0614D
:101F00004B4820624B4860634B48A06364224B49B6
:101F10004B48FEF70BFF4B4F002501264FF4FA7894
:101F200003A8FFF79FFE020028D04FF0FF3303A95C
:101F30004348FFF72AF9BDF8110000F0D5FC002254
:101F4000414B00F0C9FA00F095FAA061BDF80D0010
:101F500000F0CAFC00223D4B00F0D8FD00F08AFAE8
:101F6000E061BDF80F0000F0BFFC0022384B00F02C
:101F7000CDFD00F07FFA206200F06CF89DF81100B2
:101F8000D8B39DF80D00C0B39DF80F00A8B3E06E64
:101F9000B84204D380F00040E066267000E025706F
:101FA00001F0E6F8CDE90065034640F6B832217845
:101FB000012000F0CFF90520FEF792FAA06EB8429A
:101FC00004D380F00040A066267000E0257001F088
:101FD000CFF8CDE900060295192342462178022068
:101FE000FEF7DDF90520FEF77BFA606EB84205D3F7
:101FF00080F000406066257001E00BE0267001F083
:10200000B7F8CDE900060295192342462178012050
:10201000FEF7C5F9FFF78AFE82E7000000003443AF
:1020200000000020F067344433337E43295C0B42C8
:10203000008090C20000F04200003E438400002077
:1020400078010020000080800080284000907B40C4
:10205000006066402DE9F84FB64CE169084601F092
:10206000A7F8A1690546084601F0A2F8294600F044
:1020700055FF00F027FF00F09DF900F0FBF96062CA
:10208000216A084601F094F8A1690546084601F066
:102090008FF8294600F042FF00F014FF00F08AF9A3
:1020A00000F0E8F9A062A448216A01F057F901465E
:1020B000206301F07DF8616A0546084601F078F872
:1020C000294600F02BFF00F0FDFE00F073F900F050
:1020D000D1F90646E062206900F0F4FE0746606B25
:1020E0000D464FF0404B5946824601F061F8A16B16
:1020F000894601F05DF880464946084601F058F8E7
:1021000051460090084601F053F881463146084692
:1021100001F04EF8494601F021F9009901F01EF94D
:10212000414600F063FF00F0CDFEFFF713FB3A4697
:102130002B4600F0EDFB0022804B00F0E7FC00F0A6
:1021400099F9E063606B5946054601F031F8A16BDF
:102150000F4601F02DF806462946084601F028F8FA
:10216000E16A0546084601F023F8294601F0F6F831
:1021700005463946084601F01BF8294601F0EEF8FD
:10218000314600F033FF0146206501F011F84FF0B1
:102190007E56314601F0D8F800F094FE00F00AF9BE
:1021A00000F068F9DFF8989160654946206D00F00D
:1021B000FFFFDFF89081414601F0D0F800F082FE89
:1021C00007460D46206A00F07DFE00225E4B00F0BF
:1021D0008FFD3A462B4600F02FFA00F04BF90146EE
:1021E000E06400F0E5FF314601F0AEF800F06AFE71
:1021F00000F0E0F800F03EF9A064206900F062FE13
:1022000006460D46E06C00F05DFEFFF7EBFB324644
:102210002B4600F07DFB00F02DF92064A06C4146B8
:10222000064600F0C5FF05464849304600F0C0FFAD
:10223000216D00F0BDFF294600F070FE0546A06547
:102240004946606D00F0B4FF07462946E065084640
:1022500000F0AEFF06463946084600F0A9FF0746E3
:10226000314600F05BFE8146012101F04CF900F09F
:1022700029FE8846E16906468A46504600F098FFE6
:102280000146384601F06AF807464846304900F0F2
:102290008FFF394600F08CFF07460221284601F0E7
:1022A00032F9294600F084FF514600F081FF514683
:1022B00000F07EFF394601F051F800F003FE00F017
:1022C00079F807460D460121A06D01F01CF9E1697E
:1022D00000F06EFF00F0F6FD3A462B4600F0FCF8E9
:1022E0003246434600F0A8F900F0C4F806462066DE
:1022F000206900F0E7FD07460D46304600F0E2FD9C
:10230000FFF728FA3A462B4600F002FB00F0B2F83D
:10231000606461690D4600F04BFF60662946206CE1
:1023200000F046FFA0662946E06B00F041FFE06642
:10233000BDE8F88F000000200000164200806640D3
:10234000000047C30000F04200C042400000474385
:10235000000080C07FB58DF80000FB208DF80100E3
:102360008DF80210100A8DF803008DF80420180E65
:102370008DF80500DDE90845180C8DF80600180AEF
:102380008DF808308DF807008DF809408DF80A5057
:102390006B208DF80B000C21684600F001F87FBD22
:1023A0000A4601464FF47A730148FEF7EEBE00007C
:1023B000E80000202DE9F04106460F4600F0B2FB90
:1023C000041E0D4618BF0120284320F00040C0F134
:1023D0007F6000F1E040C00F0ED0301C18BF01201C
:1023E000384320F00040C0F17F6000F1E040C00FB2
:1023F00004BF0120FDF75CFF20462946BDE8F081BF
:102400000A4601464FF47A730148FEF7BEBE00004B
:10241000300100202DE9F0410C468046FFF774FCA6
:10242000A04202D20020BDE8F081104D104968782A
:102430000219802A08D2084422464146FDF7C4FE0C
:102440006878204468700FE0C0F18002D7B2084479
:102450003A464146FDF7B8FEE61B08EB0701324657
:102460000348FDF7B1FE6E702046DCE780000020D7
:10247000C001002021F00042A2F16052B2F5801F9D
:1024800001F0004328BFD2F17F6C0BD95FEA001C3A
:1024900043EAC20242EB507018BF704728BF20F0D9
:1024A00001007047B2F5801FBCBF184670474FEA65
:1024B000410C1CF5001F02D2084600F040BF70B569
:1024C00000F0D0FA00000089FFF7F6BF4FF000409F
:1024D000A0F580007047000010B591EA030F48BFD7
:1024E00083F0004300F10C84841A71EB030C05D2D5
:1024F000121943EB0C03001B61EB0C01DFF824E124
:102500004FEA1154A4EB135C1EEA430F18BF9EEA76
:10251000445F73D023EA0E03DCF1200E21EA04515C
:1025200043F4801332D322FA0CFE10EB0E0023FA90
:102530000CFE41EB0E01CCF1200E03FA0EFE10EB67
:102540000E0051F10001B1F5801FCCF1200E32D206
:1025500001EB045112FA0EF2BDE8104058BF70476B
:10256000401C38BF5FEA420218BF7047002814BF02
:1025700020F0010041F100014FEA410313F5001F73
:1025800038BF7047A1F1C04100F0BABA012A43EB4D
:102590000302ACF1200CDCF11F0E32BF4FF0000E35
:1025A00023FA0CF310EB030041EB0451B4EB115F81
:1025B000D0D0A1EB045101F5801149085FEA300049
:1025C00001EB04510ED350F1000038BF12FA0EFE99
:1025D00008D1BDE81040C9E7401C38BF5FEA42029D
:1025E000CAD1C3E7BDE810404FEA410313F5001F0D
:1025F00038BF7047A1F1C04100F082BA9EEA445F43
:1026000008D011EA5E0FBDE8104004BF01F00041A0
:1026100000207047BDE8104070B500F023FA00BFFD
:1026200064FBBE3E0000E0FF02494FF0000000F0F6
:102630000ABF00BF0000F87F2DE9C04130B4DFF8C9
:10264000A0C23CEA111418BF3CEA131400F0EC805D
:1026500081EA03051CEA111444EAD57418BF1CEA88
:10266000131500F0C780A4EB05044FF0004545EAC0
:10267000C12145EAC32341EA505143EA525304F1D0
:102680007F74994204F500344FEAC0204FEAC22219
:1026900008BF904200F09C804FEA13650FF240168D
:1026A000765D4FEA134506FB05F7C7F1807706FB19
:1026B00007F74FEAD737A7FB03687642C8F580389B
:1026C000A7FB06CE38BFA8F1010807FB08E64FF0CC
:1026D000000EA6FB028CE6FB03CEDCF1000CCEF173
:1026E000004E38BFAEF1010EA6FB0C584FF00007AC
:1026F0004FF00005E6FB0E87A1FB08C6A0FB07CE46
:1027000016EB0E0645F10005E1FB076515F1E04EFD
:102710007EBFA4F580345FEA46066D4116F180075E
:1027200045F100054FEA17274FEA066647EA0567B5
:10273000A6F1DE46B6F1805F4FEA15251FD938466F
:1027400024F0010C05EBC471BCF1FE6F01EB0C1120
:1027500002D8F0BCBDE8008124425CBF01F5801EB8
:102760009EEAC47F02D4F0BCBDE80081244238D484
:10277000F0BCA1F1C041BDE8004100F0C1B94FEA91
:10278000D22242EA43524FEAD323A7FB02864FEA02
:10279000D02040EA415007FB03661EEA0E0F4FEAC5
:1027A000D12105FB026658BFA6EB0056B6EB0056DA
:1027B0004FEA520E4EEAC37E18EB0E0E56EB530E46
:1027C000BDD518EB02085E417F1C55F10005B6E748
:1027D0004FF480154FF000074FF000064FF000084F
:1027E000ADE7F0BC4FF0000001F1C04101F0004145
:1027F000BDE8008111EA0C1F0CEA131500D00CE0B3
:1028000013EA0C1F00F025804FF00000F0BC81EAB5
:10281000030101F00041BDE80081F0BCBDE80041CA
:1028200081EA030100F06CB9F0BCBDE8004170B56D
:1028300000F018F9097EFC3E00F007B881EA0301B8
:102840004FF0000001F00041704781EA030100F001
:1028500057B9F0BCBDE800414FF000002149704776
:10286000FFFDFBF9F7F5F4F2F0EEEDEBE9E8E6E455
:10287000E3E1E0DEDDDBDAD8D7D5D4D3D1D0CFCDDC
:10288000CCCBCAC8C7C6C5C4C2C1C0BFBEBDBCBB15
:10289000BAB9B8B7B6B5B4B3B2B1B0AFAEADACAB10
:1028A000AAA9A8A8A7A6A5A4A3A3A2A1A09F9F9EEA
:1028B0009D9C9C9B9A99999897979695959493939C
:1028C000929191908F8F8E8E8D8C8C8B8B8A898933
:1028D00088888787868585848483838282818180B6
:1028E0000000FF070000F87FB0FA80F310FA03F150
:1028F0000AD0C3F11D0303F580634FEA41504FEA4C
:10290000035202EBD12170474FF0000070470000E6
:10291000DFF848C170B51CEA111E1EBF1CEA131572
:102920009EEA0C0F95EA0C0F00F06F8081EA030419
:1029300023EA4C134EEAD47E21EA4C1141F4801173
:1029400043F48013AE44A1FB024CA0FB0365AEF13F
:102950007F7E361955EB0C05A1FB034C4CF10003AF
:10296000A0FB021C16EB0C06654153F10003094263
:1029700018BF46F0010613F4007F0BD14FEA033174
:102980004FEA0530340341EA155140EA16506FF022
:1029900003020AE04FEAC3214FEAC520F40241EAEC
:1029A000555140EA56506FF0020202EB2E4201EB05
:1029B000025585EACE710AD05FEA440C18BF24F0B4
:1029C000004450F1000041F1000120EAD47040F2CF
:1029D000FE7C624500D270BDA84214BF4FF0804417
:1029E0004FF04044002E08BF0024BEF1806FA8BF06
:1029F000A1F1C041BDE8704080F282804FF000003C
:102A000001F1C04101F0004170479EEA0C0F0CEA51
:102A1000131518BF95EA0C0F06D04FF0000081EA9D
:102A2000030E0EF0004170BD00F01CF88900013E5D
:102A300000F007B800F009B84FEA430C5FEA5C5CAD
:102A400008D081EA030100F05BB84FEA410C5FEA6D
:102A50005C5CF6D14FF00000014970470000FF07B1
:102A60000000F87F0EF1020E2EF0030E5EF8046BEC
:102A7000364205D4012A43EB030515F5001F12D891
:102A8000012841EB010C1CF5001F0CD80ED14FEAB8
:102A9000D17C15F5001F0CEB4C0C0CF1020C08BF9F
:102AA0004CEBD37C04E04FF0080C01E04FEAD37C00
:102AB0000CEB4C0526FA05F606F00706B6F1040CF9
:102AC00006D20EEB860CBDE870404CF0010C60475E
:102AD000DFE80CF0090B02024FF000414FF000005C
:102AE000A1F5002170BD19461046012851EB0104E3
:102AF00018BFD4F5001484BF002001F0004170BD60
:102B00000808A0F500114FEA3101704791EA030F60
:102B100010B581F000413FF5E7AC83F0004300F0D1
:102B2000EFB800002DE9F04101F5801CBCF5001F55
:102B3000C0F2C3804FEA115C21EA0C510CF1FD0C8C
:102B400041F480115FEA5C0C0CF5C07C01D34000BD
:102B500049413DA4890241EA905187028E0E0A0C38
:102B6000A45D04FB04F602FB06F6C6F14046A4FB96
:102B70000662F60D46EA422606FB06F4A4FB012394
:102B80005242C3F1404338BF5B1EA6FB0242002401
:102B9000E6FB0324D20B42EA4446A6FB0623A1FB34
:102BA00002E2A3FB07E4A4184FF0000252F1000276
:102BB000E3FB01426442C2F1404E38BFAEF1010E68
:102BC000A6FB04234FF00002E6FB0E32A2FB0346F5
:102BD0004FF00004B61954F10004E2FB0264A1FBBB
:102BE00006E6A4FB07E816EB08064FF0000858F1CC
:102BF0000008E4FB01687642C8F1405838BFA8F1EC
:102C00000108A2FB06E4A3FB08E52D194FF0000420
:102C100054F10004E2FB0854A1FB05E6A7FB04E81D
:102C200018EB06084FF0000656F10006E1FB04869B
:102C300018F1200556F10006A809A8F11B08B109F2
:102C400008F03F08B8F10A0F40EA86601CD901EB92
:102C50000C51BDE8F08100BFFCF5EEE8E2DDD8D311
:102C6000CFCBC7C3C0BDB9B6B4B1AEACA9A7A5A3FD
:102C7000A19F9D9B9A9896959392908F8D8C8B890E
:102C80008887868584838281A0FB006800FB01F22F
:102C900008EB4208B8EB872807D5341858EB010435
:102CA000D5D5401C51F10001D1E7341A78EB01046D
:102CB000CDD4401E71F10001C9E75FEA4C0C5FEA18
:102CC0009C5C0DD105D34FF0000001F00041BDE840
:102CD000F081BDE8F04170B5FFF7C4FE6DDBFFBECB
:102CE000BDE8F0414FF00000004970470000F87F58
:102CF00010B591EA030F48BF83F000433FF5F4ABF2
:102D0000841A71EB030C07D212198CF0004C43EBC0
:102D10000C03001B61EB0C01DFF8A4E14FEA115436
:102D2000A4EB135C1EEA430F18BF9EEA445F00F059
:102D3000B08023EA6E03524221EA0451C3EB6E03D2
:102D400038BF5B1EDCF1200E25D322FA0CFE10EBFF
:102D50000E0043FA0CFE41EB0E01CCF1200E03FAFB
:102D60000EFE10EB0E0051F10001CCF1200E29D423
:102D700012FA0EF201EB0451BDE8104058BF704743
:102D8000401C1CBFB2F1004F704700280CBF491C0B
:102D900020F00100704712EB020E43EB030218BF54
:102DA0004FF0010E4EEA4202ACF1200CDCF11E0E97
:102DB00054D943FA0CFE10EB0E0051F1FF31CCF167
:102DC0001E0ED5D50EF1010E12FA0EFE404141EB5A
:102DD000010101EB445C5FEA5C5C10D910EBDE7032
:102DE00001EB045138BFBEF1004FBDE8104018BFE1
:102DF000704700280CBF491C20F00100704730D2FA
:102E00004FEAD42C11F5001124F400641BD0B1FA60
:102E100081F20B3AA41AA41ED2F12003914030FA99
:102E200003F31943904001EBCC71002C01EB0451EA
:102E3000BDE81040A8BF704701F1C0414FF000004D
:102E400001F000417047B0FA80F310FA03F100D1AD
:102E500010BDE41A173C4805C90AE4E701EB045128
:102E600010BD491001EB0451BDE810404FEA30009D
:102E700002E04FF0000170474A0008BF0042F8D05E
:102E8000B2F5001F28BF704701F000414FF000006D
:102E900070479EEA445F07D011EA5E0FBDE810401C
:102EA00004BF002100207047BDE8104070B5FFF757
:102EB000D9FD00BF40DFF63E83F000411046704769
:102EC0000000E0FF43004FEAD30C4FEA3C0C4340C4
:102ED0001FBF40070CF1605113F0FE4F70471CF00C
:102EE000006F03D100200CF0004170470CF000434C
:102EF00043EA507010B540EACC0000F0DAF900BFA8
:102F0000000000924FEA0001FFF7FABD4FF00041C8
:102F10004FF00000A1F500217047000090EA010F7A
:102F200048BF81F0004100F12082421A3CBF801A64
:102F300089184FEAD0524FF07F4C1CEA410FA2EBA8
:102F4000D15318BF9CEA026F00F03B804FF0004C59
:102F50004CEA00204CEA012121FA03FC10EB0C0C96
:102F60001ED202F1FF325FEA1C2040EBC25038BF94
:102F700070471CF07F0F4FEA400C18BFBCF17F4F29
:102F800038BF7047C3F12003994008BF20F001000B
:102F9000BCF17F4F38BF7047A0F1C04000F0CFB9FF
:102FA0004FEA3C00000A40EBC25028BF1CF0FF0F64
:102FB0004FEA400CE6D018BFBCF17F4F38BF7047D6
:102FC000EAE79CEA026F05D010EA5C0F08BF00F048
:102FD0000040704710B500F06CF900BF64FBBE3EC6
:102FE000014800F030BA00BF0000C07F4FF47F0CF2
:102FF0001CEAD0121EBF1CEAD11392EA0C0F93EA0E
:103000000C0F00F0858090EA010F48BF42F48072F7
:1030100040F4000C41F400002CF07F4120F07F4090
:1030200000B58142A2EB03020FF2081CACEB504E3C
:10303000C0F100009EF800E04FEA4E0E00FB0EFCCF
:1030400038BF49004FEA2C1C02F5FA020CFB0EF3C4
:103050004FEACE1E4FEA112C4FEAC1210EEB635E00
:1030600042EB22420EFB0CFC4FEA1C5300FB031107
:103070004FEA112C4FEA01310EFB0CFC4FEADC4CFD
:1030800000FB0C11C14228BF09184CEB03335DF85B
:1030900004EB10EB410143EBC250B2F57C0F38BF9B
:1030A000704729D512F0F00F1CBF00F1C04000F0AE
:1030B00000407047008182838485868788898B8C55
:1030C0008D8E8F919293959697999A9C9D9FA0A291
:1030D000A3A5A7A8AAACAEB0B2B3B5B7B9BCBEC0E1
:1030E000C2C5C7C9CCCED1D4D7D9DCDFE2E6E9EC82
:1030F000F0F3F7FAFE0000004FEA400C0CF1807C80
:10310000BCF17E4F28BF7047B0F1C04000F017B946
:1031100090EA010F0CEAD11348BF42F48072624575
:1031200038BF634507D213F47F0F16D080EA010041
:1031300000F00040704710B500F0BBF8097EFC3E7F
:1031400000F005B880EA010000F00040704780EA16
:10315000010000F0004000F0F2B812F47F0F04BF4D
:103160000248704780EA010000F0E9B80000C07F23
:10317000C10DD1F19E0206DB4FEA002343F000436C
:1031800023FA02F07047004207D54FEA4001B1F13F
:10319000FE4F02D24FF00000704710B500F089F8E2
:1031A00049922480002070476FEA20007047000099
:1031B0004FF47F0C1CEAD0121EBF1CEAD11392EA16
:1031C0000C0F93EA0C0F00F0478090EA010F48BF04
:1031D00042F480724FF0004C4CEA00204CEA01218E
:1031E00002EB0302A0FB0113A2F50002002918BFA5
:1031F00043F001035B0028BF4FEA330342EB224256
:103200005FEA132C4CEBC2502EBFBCEB436FB2F500
:103210007C0F70474FEA036CBCF1004F08BF20F0F1
:103220000100B2F57C0F38BF70470BD582F0FF026A
:1032300012F5803FC8BF704700F1C040D8BF00F012
:103240000040704700F5000C5FEA4C0C48BF704727
:10325000B0F1C04000F073B890EA010F0CEAD1134E
:1032600048BF42F48072624538BF634504D280EAA9
:10327000010000F00040704710B500F01AF800BFE0
:103280008900013E00F007B800F009B85FEA410C80
:103290005FEA1C6C08D080EA010000F050B85FEAD9
:1032A000400C5FEA1C6CF6D14FF00040A0F58000A6
:1032B00070470EF1020E2EF0030E5EF8044B24420E
:1032C00004D44FEA4102B2F17F4F11D84FEA4003D4
:1032D000B3F17F4F0CD80ED14FEAD07CB2F17F4FC3
:1032E0000CEB4C0C0CF1020C08BF4CEBD17C04E055
:1032F0004FF0080C01E04FEAD17C0CEB4C0324FAB0
:1033000003F404F00704B4F1040C06D20EEB840CB1
:10331000BDE810404CF0010C6047DFE80CF00708F6
:1033200002024FF00040A0F5800010BD08464200A8
:1033300018BFD2F1807288BF00F0004010BDFF219D
:1033400041EAD050C005704780F0004090EA010F7C
:103350007FF5EBAD81F0004100F007B890EA010F76
:1033600048BF81F000413FF5E0AD421A04D882F039
:103370000042A0EB020011444FEAD0524FF07F4CC4
:103380001CEA410FA2EBD15318BF9CEA026F4AD04E
:103390004FF0004C4CEA00204CEA012121FA03FCDA
:1033A000B0EB0C0C0FD412F0FE0F36D05FEA4C00DD
:1033B0001DD5001240EBC25038BF70471CF03F0FC4
:1033C00018BF70470BE0A2F101025FEA1C2040EB3E
:1033D000C25038BF70471CF07F0F18BF7047C3F151
:1033E0002003994014BF401E20F001007047800860
:1033F0004FEA122308BF7047B0FA80FCA2EB0C0220
:10340000CCF1280C60FA0CF093EA122F04BF00EB09
:10341000C25070474FEAC3707047130A5FEADC106E
:1034200008BF7047F6E79CEA026F04D010EA5C0F11
:1034300008BF0020704710B5FFF73BFF40DFF63EA6
:1034400081F0004070470CF00F03092B08BF0820E3
:1034500000F07F800A2B0BD0082B18BF704708BFE5
:103460001CF0400F0AD04FF000004FF000017047F1
:103470001CF0400F18BF4FF0004070471CF0100FB9
:1034800008D020F0704300F07F4242EAD3014FEAB7
:103490004370704700F0604021F07F4242EA000232
:1034A00001F07F4040EA727070474FF0FF0C4CF41F
:1034B000E06C1CEA11531CBF9CEA030C9445C2BF8C
:1034C000DA4201EB02517047002B0DD0BCF1000F26
:1034D0000FD0002A01F00041A4BF41F0E04141F0CB
:1034E0007F614FF00000704701F000414FF0000095
:1034F000704750EA01334FF09B0C18BF4CF0806CC2
:103500007FF492A870474FF0FF0212EAD0521CBF1E
:1035100092F0FF038B42C2BFD14200EBC150704713
:10352000002A0AD0002B0BD0002900F00040A4BFD5
:1035300040F0FE4040F40000704700F0004070474B
:1035400043024FF00B0C18BF4CF0806C7FF448AD79
:1035500070471CF4801F11D01CF4E02F03D06FEAD9
:10356000CC31490070474FF04050EFF3008222F019
:10357000704242EA000282F3008870474FF0000078
:103580007047010202030405060708090A0B0C0D27
:103590000E0F1010000000000000000001020304E4
:1035A00006070809000000000102030400000000F3
:1035B000555555555555C53F7D6FEB0312D6D4BFB4
:1035C0005544880E55C1C93F3B8F68B52882A4BFBA
:1035D00088B20175E0EF493F09F7FD0DE13D023F7B
:1035E0004B2D8A1C273A03C0C88A599CE52A004003
:1035F00059018D1B6C06E6BF82922EB1C5B8B33F50
:10360000555555555555C53F7D6FEB0312D6D4BF63
:103610005544880E55C1C93F3B8F68B52882A4BF69
:1036200088B20175E0EF493F09F7FD0DE13D023F2A
:103630004B2D8A1C273A03C0C88A599CE52A0040B2
:1036400059018D1B6C06E6BF82922EB1C5B8B33FFF
:1036500070360008000000208400000028010008E7
:10366000F4360008840000201C0800004401000813
:103670000000000000000000C3F54840000000000A
:10368000000000000000000000000000000000003A
:10369000000000000000000000000000000000002A
:1036A000000000000000000000000000000000001A
:1036B000000000000000000000000000000000000A
:1036C00000000000000000000000000000000000FA
:1036D00000000000000000000000000000000000EA
:1036E00001000000100000000000000000127A003D
:0436F00000000000D6
:04000005080000ED02
:00000001FF
